:100000000C9424020C9455020C9455020C94550245
:100010000C9455020C9455020C9455020C94550204
:100020000C9455020C9455020C9455020C945502F4
:100030000C9455020C94F2260C9455020C94550223
:100040000C9455020C947C180C9455020C94550297
:100050000C9447150C9455020C9455020C94A21F55
:100060000C9455020C9406280C94F6280C94550216
:100070000C9455020C9455020C9455020C945502A4
:100080000C94AA180C9455020C9455020C94550229
:100090000C943A280C9435290C9455020C94CA1CE3
:1000A0000C9455020C9455020C94D8180C945502DB
:1000B0000C9455020C9455020C9455020C9406199C
:1000C0000C9455020C9455020C9455020C946E2815
:1000D0000C9474290C9455020C94A2280C94B32906
:1000E0000C945502FB1EFE1EF11EF51E351F021F4D
:1000F000061F0C1F101F141F1A1F1E1F221F351F43
:10010000281F2C1F301FF320F820FD2007218021FD
:100110001121192121212B2135213F214E21582147
:10012000802162216C2176210C94C1040C94C402BC
:100130000C94EF040C9495090C94A9030C94622779
:100140000C94C6050C9419050C94C9050C94DF1A7F
:100150000C94301F0C94C31A0C94351F0C941F057B
:100160000C94DB1B0C9488050C949A0A0C944E0595
:100170000C941F1B0C94C7020C9494050C94CC0691
:100180000C94EA080C94C4040C9430050C942B21B4
:100190000C94141F0C943C150C948B050C94410585
:1001A0000C94C3080C945B050C948E050C945304BA
:1001B0000C94800A0C946C050C9426050C94C704CE
:1001C0000C9457020C940C1F0C94D5280C941921F4
:1001D0000C9453100C9444050C9411210C94330589
:1001E0000C94AD050C9458050C949E270C94281F74
:1001F0000C94FD200C94F1030C9476210C940721AF
:100200000C9469050C94EF1A0C94A3050C94A303A9
:100210000C94D1050C9497050C94A6030C94CB1A5E
:100220000C949A050C942C1F0C94C1020C94F403AA
:100230000C946C210C946F050C94EE1A0C94F11E26
:100240000C9458210C9480050C94101F0C943F21A1
:100250000C944F1B0C94A4060C941E1F0C94EB03DF
:100260000C9480210C941A1F0C94A7050C94F51E75
:100270000C9455050C94AA050C9452270C94EE038B
:100280000C94C2050C9476050C94131B0C94CC05AD
:100290000C944F070C94FE1E0C942D050C943A05FB
:1002A0000C947E270C94F3200C947D050C94A927C4
:1002B0000C941C050C94FB1E0C94021F0C944E21F4
:1002C0000C94221F0C944D0E0C94D9050C948305AC
:1002D0000C94061F0C947B020C94CA210C944705C5
:1002E0000C9435210C9462210C9421210C94F70379
:1002F0000C94F8200C947A2A0C9462050C949105C5
:100300000000090A02080B0C0D0706030401000097
:1003100000000000000000000000000000000000DD
:1003200000000000000000000000000011100F009D
:1003300000000000000000000000000000000000BD
:1003400000000000000001021020200808102040DA
:100350001020408002010201080402010102040889
:100360001020408080402010080402018004020117
:100370008040201008040201080402010102040860
:10038000102040800102040810204080050505056A
:10039000070508080808020202020A0A08080404FD
:1003A000040401010101010101010303030303032B
:1003B0000303040707070C0C0C0C0C0C0C0C0202BA
:1003C000020206060606060606060B0B0B0B0B0BB7
:1003D0000B0B00002200250028002B002E0031000E
:1003E000340002010000050108010B01000021009A
:1003F000240027002A002D003000330001010000F6
:10040000040107010A01024E414E494E495459491F
:100410004E46CDCCCC3D0AD7233C17B7D13877CC4C
:100420002B329595E6241FB14F0A000020410000B1
:10043000C84200401C4620BCBE4CCA1B0E5AAEC56A
:100440009D745310DB1B7A2A11241FBECFEFD1E21B
:10045000DEBFCDBF00E00CBF15E0A0E0B2E0ECE3F2
:10046000F2E600E00BBF02C007900D92A036B10784
:10047000D9F72EE0A0E6B5E001C01D92A63FB20775
:10048000E1F712E0C4E2D2E000E006C021970109E2
:10049000802FFE010E94282FC132D10780E008077B
:1004A000A9F70E94F2210C941C310C940000DC018D
:1004B000FB0112968C911297808313968C9113975F
:1004C000818314968C911497828315968C9115973D
:1004D000838316968C911697848317968C91179721
:1004E000858318968C911897868319968C918783AB
:1004F00088E090E00895FC01DB014C9150E060E061
:1005000070E0428353836483758311968C911197B5
:10051000582B428353836483758312968C91129770
:10052000682B428353836483758313968C9113974E
:10053000782B428353836483758314964C9114976C
:1005400050E060E070E046835783608771871596BE
:100550008C911597582B4683578360877187169621
:100560008C911697682B46835783608771871796FF
:100570008C91782B468357836087718788E090E061
:10058000089584E392E0089582E492E008956F92E2
:100590007F928F929F92AF92BF92CF92DF92EF9213
:1005A000FF920F931F93CF93DF93DC01FB018081B8
:1005B00090E013969C938E9312972181922B139621
:1005C0009C938E93129702811381248135815B0164
:1005D00086E0A80EB11C68017901C6E0CC0ED11CE2
:1005E000E11CF11CA5014E1B5F0B60E070E04C1597
:1005F0005D056E057F0540F4E50149915E01CE0180
:100600000297EC014883EECFEF01C00FD11F1D828E
:10061000CF01059615969C938E931497EF01C00F0A
:10062000D11F4E815F8168857985065F1F4F3F012D
:10063000600E711E6801012E000CEE08FF08C40E4A
:10064000D51EE61EF71E43018E1A9F0AA12CB12C5F
:100650008C149D04AE04BF0440F4E30129913E01D3
:10066000CE010297EC012883EECF400F511F9F016E
:10067000240F351FC9010197EC011882C8010197A9
:100680008E0F9F1F17969C938E931697E901888073
:100690009980AA80BB804C5F5F4F3F01640E751E3E
:1006A0008A01052E000C220B330B080D191D2A1D83
:1006B0003B1D6301CE1ADF0AE12CF12CC016D106D6
:1006C000E206F30640F4E30169913E01CE01029790
:1006D000EC016883EECFCA01880D991D8F01080FC8
:1006E000191F980121503109E9011882BA0161509E
:1006F0007109E60FF71F1996FC93EE931897F8010E
:100700002181428150E060E070E0BA015527442722
:10071000522B2081422B2381722B1A964D935D938D
:100720006D937C931D970496DF91CF911F910F914C
:10073000FF90EF90DF90CF90BF90AF909F908F9001
:100740007F906F90089583E692E008958CE792E0A1
:100750000895AF92BF92CF92DF92EF92FF920F93E4
:100760001F93CF93DF935C01EB018881F5018283B6
:1007700089819A81AB81BC81FB0135966C017D0139
:1007800025E0C20ED11CE11CF11C8F01061B170BCA
:1007900020E030E00C151D052E053F0538F4419191
:1007A0009F0122503109E9014883EFCFFB01E80F97
:1007B000F91F14826C5F7F4FF50174836383059684
:1007C000DF91CF911F910F91FF90EF90DF90CF902D
:1007D000BF90AF9008958DE992E0089580EB92E08C
:1007E000089583E294E0089581ED92E00895DC019C
:1007F000FB0112969C91129713968C9113979083FC
:10080000818314968C911497828315968C911597F9
:10081000838316969C91169717968C9117979483BD
:10082000858318969C91189719968C9119979683A1
:1008300087831A969C911A971B968C911B97908789
:1008400081871C963C911C971D962C911D971E9696
:100850009C911E971F968C911F97328723879487B0
:10086000858750963C91509751962C91519752966E
:100870009C91529753968C91539736872787908BEC
:10088000818B54963C91549755962C91559756963A
:100890009C91569757968C91328B238B948B858B9A
:1008A00086E190E00895DC01FB01818190E0982FC2
:1008B00088272081822B13969C938E931297828196
:1008C00014968C931497838115968C931597858134
:1008D00090E0982F88272481822B17969C938E93E3
:1008E0001697878190E0982F88272681822B19966A
:1008F0009C938E931897818590E0982F8827208568
:10090000822B1B969C938E931A978385448550E087
:1009100060E070E0BA0155274427582B8285482BA8
:100920008585782B1C964D935D936D937C931F97D3
:100930008785408950E060E070E0BA015527442780
:10094000582B8685482B8189782B50964D935D9343
:100950006D937C9353978389448950E060E070E005
:10096000BA0155274427582B8289482B8589782B33
:1009700054964D935D936D937C93579786E190E0E9
:10098000089582EF92E008958EE093E00895DC01EF
:10099000FB0112968C911297808313968C9113977A
:1009A000818314968C911497828315968C91159758
:1009B000838316968C911697848317968C9117973C
:1009C000858318968C911897868319968C91199720
:1009D00087831A968C91808789E090E00895FC01C6
:1009E000DB018C91828311968C91119783831296EF
:1009F0008C91129790E09583848313962C91139792
:100A0000922B9583848314968C91149786831596E4
:100A10008C911597878316968C91169780871796D9
:100A20008C911797818718968C91828789E090E046
:100A300008958FE293E008958AE493E00895FC011D
:100A40008281FB01808381E090E00895FB01208199
:100A5000FC01228381E090E008958BE693E0089505
:100A600081E893E00895FC018281FB01808381E0AD
:100A700090E00895FB012081FC01228381E090E059
:100A800008958EE594E0089582EA93E00895FC01CC
:100A90008281FB01808381E090E00895FB01208149
:100AA000FC01228381E090E008958EE594E00895B2
:100AB00082EA93E00895FC018281FB01808381E05A
:100AC00090E00895FB012081FC01228381E090E009
:100AD00008958FE394E0089582EA93E00895FC017D
:100AE0008281FB01808381E090E00895FB012081F9
:100AF000FC01228381E090E008958FE394E0089563
:100B000082EA93E00895FC0182818093820A08952D
:100B100083E090E008958FE394E0089582EA93E003
:100B2000089583E090E008958EE594E0089582EAC8
:100B300093E00895DB012C91FC0120870184F2856C
:100B4000E02D06961994FC018385948508958BE623
:100B500093E0089581E893E008950F931F93CF9356
:100B6000DF938C01EC012696CE010E94EF04D801A0
:100B70005196ED91FC915297CE01DF91CF911F914B
:100B80000F911994FC018389948908958FE293E071
:100B900008958AE493E00895FC01EE57FB4F8081AD
:100BA000089560E088E00E94721F80E180938100D8
:100BB00008958F929F92AF92BF92CF92DF92EF9261
:100BC000FF920F931F93CF93DF93EC018B018A81E8
:100BD000FB0180838B8181838C8182838D818383E0
:100BE000DB01179640E050E0BA01E4E0F0E0CA8093
:100BF000DB80EC80FD80CF0104964C155D056E0511
:100C00007F05C0F42A853B85E20FF31F3497D0801F
:100C1000F18032812381FD013397D0823196F082B9
:100C2000319630832C93FC014F5F5F4F6F4F7F4FA6
:100C30001496DDCFE00FF11F2C8520832D852183B5
:100C40002E8522832F85238320E030E040E050E092
:100C5000BA01CC84DD84EE84FF84F801E80FF91F2B
:100C600004964C155D056E057F05C0F4AC89BD8901
:100C7000A20FB31FDC901196EC9011971296FC9086
:100C800012971396AC91D082E182F282A3834F5FD8
:100C90005F4F6F4F7F4F2C5F3F4FDBCF2E892083FD
:100CA0002F892183288D2283298D2383812C912CC8
:100CB00054014E895F89688D798D84169506A60644
:100CC000B706A8F59401220F331FEC8DFD8DE20FBE
:100CD000F31FA081B181FD0101900020E9F7319758
:100CE0006F01CA1ADB0AF801E80FF91FA60160E0DC
:100CF00070E040835183628373837C01F4E0EF0EE4
:100D0000F11C8C8D9D8DFC01E20FF31F60817181C0
:100D1000A601C8018E0D9F1D0E946B2FC6018E0D6E
:100D20009F1D2FEF821A920AA20AB20AC2CFDF9148
:100D3000CF911F910F91FF90EF90DF90CF90BF90D8
:100D4000AF909F908F900895CF93DF93DC01FB01CC
:100D500012968C911297808313968D919C91149783
:100D6000EC0109900020E9F72197C81BD90BAE01CF
:100D700060E070E0418352836383748313966D91C6
:100D80007C911497AE01CF0105960E946B2FCE0186
:100D90000596DF91CF910895CF92DF92EF92FF9267
:100DA0000F931F93CF93DF937C01EB01FC018281B2
:100DB000888383818983A481B581FD01019000200E
:100DC000E9F731976F01CA1ADB0AC601A0E0B0E06B
:100DD0008A839B83AC83BD83F70164817581A601FF
:100DE000CE0106960E946B2FF701A681B781FD0107
:100DF00001900020E9F731978F010A1B1B0BFE01C0
:100E0000EC0DFD1DC801A0E0B0E086839783A087AC
:100E1000B187FAE0CF0ED11CF70166817781A80176
:100E2000CE018C0D9D1D0E946B2F0C0D1D1DF70119
:100E3000A085B185FD0101900020E9F731976F0190
:100E4000CA1ADB0AFE01E00FF11FC601A0E0B0E004
:100E500080839183A283B3830C5F1F4FF70160856A
:100E60007185A601CE01800F911F0E946B2F0C0D82
:100E70001D1DF7014285238594858585C00FD11FEF
:100E8000488329839A838B83C8010496DF91CF918D
:100E90001F910F91FF90EF90DF90CF9008954F92A8
:100EA0005F926F927F928F929F92AF92BF92CF92FA
:100EB000DF92EF92FF920F931F93CF93DF93EC019A
:100EC0005B01DB018C9111969C9111971296CC904D
:100ED0001297D12CE12CF12C7601DD24CC24D92AD7
:100EE000C82A13968C91F82A8A819B81AC81BD8196
:100EF0008C159D05AE05BF0558F4B601660F771F2A
:100F0000660F771F8A859B850E94FB1D9B878A87BA
:100F1000CA82DB82EC82FD829501295F3F4FC12CA2
:100F2000D12C7601E4E0F0E0AE014A5F5F4F8A81A8
:100F30009B81AC81BD818F010C5F1F4FC816D90604
:100F4000EA06FB0680F5F901808190E0A0E0B0E0C0
:100F5000B82FAA279927882733976081862B319647
:100F60006081962B31966081A62B8E839F83A88704
:100F7000B987F801C8010897AA85BB858A0F9B1F0E
:100F8000DA014D905D906D907C90DC014D925D9208
:100F90006D927C921397BFEFCB1ADB0AEB0AFB0A28
:100FA0002C5F3F4FC4CFEA0DFB1D80819181C28031
:100FB000D12CE12CF12C7601DD24CC24D92AC82AAD
:100FC0008381F82A8C859D85AE85BF858C159D050E
:100FD000AE05BF0558F4B601660F771F660F771F81
:100FE0008C899D890E94FB1D9D8B8C8BCC86DD8618
:100FF000EE86FF8620E030E0C12CD12C7601AE01D8
:10100000405F5F4F8C859D85AE85BF85F501E00F04
:10101000F11F0C5F1F4FC816D906EA06FB0640F504
:101020006181828190E0A0E0B0E0DC01992788270F
:10103000962B6081862B6381B62B888B998BAA8B2C
:10104000BB8BEC89FD89BF01620F731FFA018081A0
:101050009181A281B381FB0180839183A283B383B9
:10106000FFEFCF1ADF0AEF0AFF0A2C5F3F4FCACF0C
:1010700080819181C280D12CE12CF12C7601DD247C
:10108000CC24D92AC82A8381F82A8E899F89A88DE1
:10109000B98D8C159D05AE05BF0548F4B601660FE8
:1010A000771F8C8D9D8D0E94FB1D9D8F8C8FCE8A0E
:1010B000DF8AE88EF98E40E050E0BA014E018AE105
:1010C000880E911C8E899F89A88DB98D4817590764
:1010D0006A077B0708F045C0D501A00FB11FCD906E
:1010E000DD90ED90FC90C8010496D501A80FB91FC2
:1010F0002C01092E000C660877084C0C5D1C6E1C38
:101100007F1C9D012A193B09890120E030E004156C
:1011100015052605370538F41D919D01225031092A
:10112000F9011083EECF8C010C0D1D1DD501A00F10
:10113000B11F11971C9201978A0D9B1D9B8F8A8F5F
:10114000CA01880F991FAC8DBD8DA80FB91FF4017E
:10115000808191818D939C934F5F5F4F6F4F7F4F45
:10116000B1CFC801DF91CF911F910F91FF90EF9008
:10117000DF90CF90BF90AF909F908F907F906F90B7
:101180005F904F90089540E050E061E082EB9AE07C
:101190000E94F61561E070E080E090E00E941D2062
:1011A00040E050E062E082EB9AE00E94F61561E0D8
:1011B00070E080E090E00E941D2040E050E063E09D
:1011C00082EB9AE00E94F61561E070E080E090E02A
:1011D0000C941D208F929F92AF92BF92CF92DF927C
:1011E000EF92FF920F931F93CF93DF9300D01F9244
:1011F0001F92CDB7DEB78C016B0164E6C616D10431
:101200003CF0FC01EE57FB4F8081882309F478C045
:10121000DA01ED91FC910190F081E02DB801655E5D
:101220007D4FCA0119959C017801BCEEEB1ABDEF08
:10123000FB0A4FEFF70140834EEF31964083319622
:101240008083319690833196890F80958083319683
:10125000C082D801A65EBD4FDC9265E070E040E040
:1012600050E0C90107966817790730F4A1914A0F39
:10127000511D6F5F7F4FF7CF6901F8E0CF0ED11C92
:10128000800F911FFC01EC5EFD4F4095408341E0D3
:10129000C41642E0D406C1F056014701D8011296A7
:1012A0008D919C911397F40161914F01DC01ED91B7
:1012B000FC910190F081E02D1995C4018E199F09D0
:1012C0008C159D055CF31EC08EE994E09A8389839A
:1012D00083E08B8383EC93E09D838C83D801ED9135
:1012E000FC910190F081E02DAE014F5F5F4F67E010
:1012F00070E0C8011995AA24AA94BB24BA9402C02C
:10130000A12CB12CC5010F900F900F900F900F9052
:10131000DF91CF911F910F91FF90EF90DF90CF90D1
:10132000BF90AF909F908F900895CF93DF933091AF
:10133000820AFC012285332319F0211103C0CBC09E
:101340002111C9C0EC010E94EC1F6093830A7093C5
:10135000840A8093850A9093860A8C819D812091CE
:10136000C00521110EC028E631E0281B390B4B8146
:10137000042E000C550B6A8182EB9AE00E941C1629
:1013800004C082EB9AE00E943B168985882331F0E5
:1013900061E084E00E94721F61E005C060E084E0CB
:1013A0000E94721F60E087E00E94721F2091160267
:1013B000309117024E81429FC001439F900D11242E
:1013C00064E670E00E94D32EEB011C161D060CF0A3
:1013D00082C02617370734F437FD02C0E90102C086
:1013E000C0E0D0E061E088E00E94721F28EE33E0A8
:1013F000C29FC001C39F900DD29F900D112420E188
:101400002093810010928000092E000CAA0BBB0BC8
:1014100063E0880F991FAA1FBB1F6A95D1F7009739
:10142000F1E0AF07B10520F421E02093B90A42C0F2
:10143000009728E0A207B10558F422E02093B90AEA
:1014400053E0B695A795979587955A95D1F732C0F1
:101450000097E0E4AE07B10558F423E02093B90A01
:1014600046E0B695A795979587954A95D1F722C0FE
:101470000097A105F1E0BF0740F424E02093B90AEA
:10148000892F9A2FAB2FBB2715C00097A10524E009
:10149000B20758F425E02093B90A2AE0B695A7953B
:1014A000979587952A95D1F705C085E08093B90A6D
:1014B0008FEF9FEF9093BB0A8093BA0A8091BA0A8C
:1014C0009091BB0A90938700809386008091B90A1F
:1014D000806180938100DF91CF910895CF93DF9356
:1014E000AB01EC01AE81BF81ED91FC9111976C8154
:1014F0007D810190F081E02DCD01DF91CF91199494
:101500000F931F93CF93DF93EC01FB0180818887BA
:101510008E01075F1F4FEE89FF89B801CE01069645
:101520001995B801CE010C96DF91CF911F910F91C3
:101530000C946E0A0F931F93CF93DF93EC01FB0182
:10154000808188878E01075F1F4FEE89FF89B80170
:10155000CE0106961995B801CE010C96DF91CF9178
:101560001F910F910C946E0A40E050E061E082EB15
:101570009AE00E94F61561E070E080E090E00E9441
:101580001D2040E050E062E082EB9AE00E94F615F8
:1015900061E070E080E090E00E941D2040E050E0BB
:1015A00063E082EB9AE00E94F61561E070E080E073
:1015B00090E00C941D206CEB75E082EB95E00E94AE
:1015C0006E0AECEBF5E0868197819093A70A8093F1
:1015D000A60A808591859093A50A8093A40A8285A6
:1015E00093859093A30A8093A20A089526EC35E090
:1015F00044EC55E062EC75E082EB9AE00C94EB165B
:1016000061E084E00E94361F61E087E00E94361F9F
:1016100061E085E00E94361F61E086E00E94361F8F
:1016200060E089E30E94361F60E087E30E94361F76
:1016300060E086E30E94361F60E088E30E94361F68
:1016400060E084E00E94721F60E087E00E94721FE9
:1016500060E070E085E00E94CA2060E070E086E013
:101660000E94CA2069E070E083EB9AE00E94FE19B4
:1016700064EB70E083EB9AE00C94391A60E382EB40
:101680009AE00E9479156AE070E080E090E00E94A4
:101690001D2082EB9AE00E943B166AE070E080E039
:1016A00090E00E941D202FEA3AE040EB5AE061EB07
:1016B0007AE082EB9AE00E945F1765E070E080E0DC
:1016C00090E00E941D2082EB9AE00E948416809395
:1016D000AE0A65E070E080E090E00E941D2082EBA1
:1016E0009AE00E94DC169093AD0A8093AC0A65E004
:1016F00070E080E090E00E941D2082EB9AE00E9462
:10170000E1169093AB0A8093AA0A65E070E080E04E
:1017100090E00E941D2082EB9AE00E94E6169093D2
:10172000A90A8093A80A65E070E080E090E00E943A
:101730001D202091260230912702409128025091CD
:10174000290260912A0270912B0282EB9AE00E949A
:10175000B6156FE070E080E090E00E941D202091BF
:101760002002309121024091220250912302609187
:1017700024027091250282EB9AE00E94D6156FE058
:1017800070E080E090E00E941D2068EE73E080E051
:1017900090E00C941D20CF9360E070E086EB9AE01F
:1017A0000E944415C82F61E070E086EB9AE00E9429
:1017B00044152C2F30E0322F2227282B30932B0278
:1017C00020932A0262E070E086EB9AE00E944415C2
:1017D000C82F63E070E086EB9AE00E9444152C2F3E
:1017E00030E0322F2227282B309329022093280221
:1017F00064E070E086EB9AE00E944415C82F65E033
:1018000070E086EB9AE00E9444152C2F30E0322FD6
:101810002227282B309327022093260266E070E0CF
:1018200086EB9AE00E944415C82F67E070E086EBD3
:101830009AE00E9444152C2F30E0322F2227282BCB
:10184000309325022093240268E070E086EB9AE052
:101850000E944415C82F69E070E086EB9AE00E9470
:1018600044152C2F30E0322F2227282B30932302CF
:10187000209322026AE070E086EB9AE00E94441511
:10188000C82F6BE070E086EB9AE00E9444152C2F85
:1018900030E0322F2227282B309321022093200280
:1018A000CF910895FC01EC5EFB4F20E030E04191C8
:1018B0005191452B91F4F901E65FFD4FEE0FFF1FAB
:1018C000E80FF91F7183608323583F4FFB01358375
:1018D00024839783868381E008952F5F3F4F2931CA
:1018E000310529F780E008950F931F93CF93DF937D
:1018F000CDB7DEB72A970FB6F894DEBF0FBECDBFC7
:101900008C0186E894E09A8389831B821C821D8265
:101910001E821F82188619861A86D801ED91FC91C5
:101920000190F081E02DAE014F5F5F4F6AE070E003
:10193000C80119950E94EC1FF801608771878287A2
:1019400093872A960FB6F894DEBF0FBECDBFDF9106
:10195000CF911F910F9108954F925F926F927F9256
:10196000AF92BF92CF92DF92EF92FF920F931F93AD
:10197000CF93DF93CDB7DEB72E970FB6F894DEBFC7
:101980000FBECDBF8C0182E994E09A8389831C82CB
:101990001B828BEF93E09E838D8398878F839A873A
:1019A00089871B861C861D861E8668018CEEC81AD8
:1019B0008BEFD80A7801AAEBEA1AABEFFA0A412CAE
:1019C00092E0592E612C712CD601ED91FC9130974B
:1019D000B9F1848195819C838B83808191819E83E1
:1019E0008D8382819381DC01ED91FC910480F581EE
:1019F000E02D199598878F83D601ED91FC91828116
:101A00009381DC01ED91FC910680F781E02D199521
:101A10009A8789874B865C866D867E86F8018081F1
:101A20009181F601A081B18118966D917C911997F1
:101A3000DC01ED91FC91AE014F5F5F4FC80119953C
:101A4000B2E0CB0ED11CCE14DF0409F0BDCF68018B
:101A5000E8E8CE1AEBEFDE0A412C82E0582E612C2A
:101A6000712CF701A081B1811097E1F112968D914F
:101A70009C9113979C838B8314968D919C911597C1
:101A80009E838D83ED91FC9111970480F581E02D6B
:101A9000CD01199598878F83D7018D919C91DC0199
:101AA000ED91FC910680F781E02D19959A87898741
:101AB0004B865C866D867E86D801ED91FC91A08078
:101AC000B180F70180819181DC01ED91FC91028070
:101AD000F381E02D1995AE014F5F5F4FBC01C80146
:101AE000F5011995F2E0EF0EF11CEC14FD0409F07C
:101AF000B8CFF801EE57FB4F81E080832E960FB6EA
:101B0000F894DEBF0FBECDBFDF91CF911F910F9133
:101B1000FF90EF90DF90CF90BF90AF907F906F904D
:101B20005F904F9008958F929F92AF92BF92CF9205
:101B3000DF92EF92FF920F931F93CF93DF93CDB776
:101B4000DEB72A970FB6F894DEBF0FBECDBF8C016B
:101B50005B0186E894E09A8389831B821C821D8244
:101B60001E821F82188619861A860E94EC1FF801B1
:101B7000C084D184E284F3849B01AC012C193D091B
:101B80004E095F0969017A01B501CE0101960E94F3
:101B90007B0288EE882E83E0982EA12CB12CC70101
:101BA000B601A50194010E94E72ECB80DC80ED8078
:101BB000FE80C20ED31EE41EF51ECB82DC82ED82B7
:101BC000FE829B01AC0160E472E48FE090E00E9431
:101BD000B72ECF80D884E984FA84DC01CB018C0D48
:101BE0009D1DAE1DBF1D8F839887A987BA870E9450
:101BF000EC1FCB80DC80ED80FE8031E0C31AD10881
:101C0000E108F108A50194010E94E72EC21AD30A47
:101C1000E40AF50AF801C486D586E686F786CF8001
:101C2000D884E984FA84F6E3DF1AF5E6EF0AF4ECE7
:101C3000FF0A9B01AC0160E472E48FE090E00E9437
:101C4000B72EC61AD70AE80AF90AF801C08AD18A5B
:101C5000E28AF38AB801605F7F4FC8010C960E9448
:101C6000951A0E94EC1FF801E957FB4F60837183BE
:101C7000828393832A960FB6F894DEBF0FBECDBF42
:101C8000DF91CF911F910F91FF90EF90DF90CF9058
:101C9000BF90AF909F908F9008952F923F924F9258
:101CA0005F926F927F928F929F92AF92BF92CF92EC
:101CB000DF92EF92FF920F931F93CF93DF93CDB7F5
:101CC000DEB760970FB6F894DEBF0FBECDBF988B1E
:101CD0008F870E94EC1F4B015C012F8538892957A3
:101CE0003B4F3E832D83F90180819181A281B38195
:101CF000A5019401281B390B4A0B5B0BDA01C901C2
:101D0000893F9A42A105B10528F0EF85F889EE5781
:101D1000FB4F10820F85188908581B4FD8018D91F1
:101D20009C91892B81F0EF85F889E557FB4F8081E5
:101D30009181A281B38188159905AA05BB0518F484
:101D4000F801118210826F847888F0E86F1AFBEF37
:101D50007F0A2F85388924583B4F3A832983CF84C3
:101D6000D88834E1C30ED11C4F8558894E575B4F3C
:101D700058874F832F85388920573B4F3A872987CB
:101D80004F85588941575B4F5C874B87EF84F888B4
:101D900056E8E51A5BEFF50A2F85388922583B4F44
:101DA0003C832B834F85588945575B4F5E874D8712
:101DB0001401250154E1250E311C411C511CAF8535
:101DC000B88912968D919C911397DC01ED91FC914D
:101DD0000680F781E02D19959C0197FD22C1F30142
:101DE00080819181820F931F91838083D8014D91CF
:101DF0005C9147305105D1F4EB81FC818081918168
:101E0000AC014F5F5F4F51834083EF85F889E80F46
:101E1000F91F248BD7018D919C91119701978D9378
:101E20009C93892B61F688E090E06BC041155105C9
:101E300021F52F3F310561F481E090E0D8018D93C9
:101E40009C93ED85FE852082318242825382B7CFFA
:101E50000E94EC1FDC01CB0188199909AA09BB0972
:101E60000697A105B10508F4AACFEF85F889EE57CA
:101E7000FB4F10828EEF9FEFFDC04130510599F46A
:101E80002E3F310519F482E090E02BC0F801118259
:101E90001082AF81B8858C91811191CF8F859889FF
:101EA0000E94740C8CCF4230510569F4F7013183E4
:101EB0002083AB81BC811D921C9283E090E0F801ED
:101EC0009183808332C04330510579F4322F222729
:101ED000F70180819181280F391F3183208384E0AD
:101EE00090E0D8018D939C936ACF4430510589F4DA
:101EF00060E071E00E94D32E8F3F910531F485E0C0
:101F000090E0F801918380835ACFD8011D921C92F2
:101F100056CF4530510569F4E981FA813183208338
:101F2000E6E0F0E0D801ED93FC93D3012D933C93D0
:101F300046CF4630510599F4322F2227E981FA81A4
:101F400080819181280F391F31832083E7E0F0E001
:101F5000D801ED93FC93D7018D919C9162CF4830CD
:101F6000510509F02CCFF8011182108260E071E078
:101F70000E94D32E8F3F910509F021CFA981BA810C
:101F80008D919C910097C9F48F8598890E94740C5B
:101F90008F8598890E94AC0CEF85F889ED57FB4F2F
:101FA00080829182A282B382ED81FE8180829182C1
:101FB000A282B3828FEF9FEF5DC08A30910531F42A
:101FC000B6018F8598890E94930DF9CE86309105D0
:101FD00051F4B60189859A850E944F0781E0AB854F
:101FE000BC858C93ECCE8B30910521F4EF81F88584
:101FF0001082E5CEFC01E154FE4FEE0FFF1F2F854E
:102000003889E20FF31F80819181009709F4D7CEC0
:10201000DC01ED91FC910190F081E02DB601199564
:10202000CECEEF85F889EE57FB4F8081882301F1F2
:102030000F8518890D571B4FF80180819181A2816E
:10204000B381A5019401281B390B4A0B5B0BDA0104
:10205000C901853C9940A105B10550F08F8598894B
:102060000E94740CD8018D929D92AD92BC921397F0
:1020700080E090E060960FB6F894DEBF0FBECDBF53
:10208000DF91CF911F910F91FF90EF90DF90CF9054
:10209000BF90AF909F908F907F906F905F904F9088
:1020A0003F902F90089583EB9AE00E9434198AE0C4
:1020B00095E09093D5058093D4058EEA9CE09093AB
:1020C000D7058093D60580E091EEA0E0B0E0809344
:1020D000D8059093D905A093DA05B093DB0510924B
:1020E000560A8AEA94E09093650A8093640A1092F3
:1020F000660A1092670A1092680A1092690A109292
:102100006F0A10926E0A1092700A1092710A109261
:10211000720A1092730A1092790A1092780A109239
:102120007A0A10927B0A10927C0A10927D0A109211
:10213000810A1092800AE8EEF9E0119211928AE089
:10214000EA31F807D1F7EAE1FAE0119211928AE058
:10215000EC34F807D1F7E8EEF5E0119287E0E83EBD
:10216000F807D9F7E8EEF7E0119289E0E83EF807C2
:10217000D9F786EB94E09093BD058093BC0510924F
:10218000BF051092BE051092C0051092C1051092B5
:10219000C3051092C2051092C5051092C405109295
:1021A000C7051092C6051092C8051092C905109275
:1021B000CA051092CB051092CC051092CD05109255
:1021C000CE051092CF051092D0051092D105109235
:1021D000D2051092D30581E093E09093B3058093EC
:1021E000B2058CEB95E09093B5058093B405109201
:1021F000BB051092BA0584E195E090939E0580930B
:102200009D0582EC94E09093A4058093A305109221
:10221000A5051092A6051092A8051092A705109288
:10222000A9051092AA051092AB051092AC05109268
:10223000AD0585E999E09093AF058093AE0581E007
:1022400090E09093B1058093B0052EE333E0309396
:10225000A2052093A10520E235E03093910520935B
:1022600090052EEC34E0309397052093960510925C
:10227000980523E835E030939A05209399059093CB
:102280009C0580939B058AE793E090939505809346
:1022900094058CE295E090937905809378058AED1A
:1022A00094E090937F0580937E051092800586EEE2
:1022B00094E09093820580938105109283058CEFC2
:1022C00093E0909385058093840521E835E0309371
:1022D00087052093860522E030E030938D0520931A
:1022E0008C0590937D0580937C0583EC98E090931A
:1022F0008F0580938E0588E395E090936105809328
:10230000600582EF94E090936705809366051092D4
:1023100068058EEF94E090936A05809369051092AA
:102320006B0581E194E090936D0580936C0549E61F
:1023300055E050936F0540936E05309375052093DB
:10234000740590936505809364058CE395E1909303
:102350007705809376050895CF93DF930E943E0B17
:102360000E94000B61E088E00E94361F60E088E078
:102370000E94721F81ED95E09093B80A8093B70A8E
:1023800081E080936F0080E18093810040E051EE16
:1023900060E070E08EEA9CE00E94F2298EEA9CE008
:1023A0000E949E2740E855E260E070E08CE89CE0E7
:1023B0000E94F2298CE89CE00E949E270E94B40AA9
:1023C0000E94CB0B22E330E040E050E060EA7FE087
:1023D00085E30E944C2366E970E080E090E00E9473
:1023E0001D2022E330E040E050E060EA7FE085E33A
:1023F0000E944C236CE271E080E090E00E941D207E
:1024000024E630E040E050E060EA7FE085E30E94AF
:102410004C236CE271E080E090E00E941D2024E6F5
:1024200030E040E050E060EA7FE085E30E944C232A
:102430004091D8055091D9056091DA057091DB057E
:102440008091D6059091D7050E94F22910924D0AED
:1024500010924C0A10924F0A10924E0A1092530A90
:102460001092520A1092510A1092500A62EB75E0D3
:1024700084ED95E00E94520CCAE1DAE0FE0180E0B2
:1024800090E021913191232B81F4FC01EE0FFF1F8D
:10249000E65EF54F2DE935E0318320838C599F4F5F
:1024A0009093A00580939F0504C001968931910502
:1024B00041F7EAE1FAE080E090E021913191232BAD
:1024C00081F4FC01EE0FFF1FE65EF54F20E935E0D9
:1024D000318320838C599F4F90939305809392056D
:1024E00004C001968931910541F764E875E084EDF7
:1024F00095E00E94520CEAE1FAE080E090E0219140
:102500003191232B81F4FC01EE0FFF1FE65EF54FA6
:1025100028E735E0318320838C599F4F90937B05CA
:1025200080937A0504C001968931910541F76CE6E4
:1025300075E084ED95E00E94520C80E090E02991D6
:102540003991232B81F4FC01EE0FFF1FE65EF54F5E
:1025500020E635E0318320838C599F4F90936305AB
:102560008093620504C001968931910541F7DF919E
:10257000CF910895CF92DF92EF92FF92CF93DF93A6
:10258000CDB7DEB761970FB6F894DEBF0FBECDBFF3
:1025900088E30E94A520853F91402CF08091C005E2
:1025A000882309F45EC288E30E94A520843F9140FD
:1025B00024F48091C00581115CC20E94EC1FC09080
:1025C000830AD090840AE090850AF090860AAB01D5
:1025D000BC014C195D096E097F0980910002909140
:1025E0000102092E000CAA0BBB0B84179507A60746
:1025F000B70770F482EB9AE00E943B160E94EC1F32
:102600006093830A7093840A8093850A9093860A64
:102610008CE89CE00E9452271816190604F54AE03F
:102620006CE87CE0CE010B960E942F2220E030E087
:102630004AE050E0BE016F5F7F4FCE010B960E94D3
:102640001D23CE0101960E945E2F0E945D2D709386
:10265000BF056093BE05CE010B960E9457220E94D3
:10266000EC1FC0909E0AD0909F0AE090A00AF090C4
:10267000A10AAB01BC014C195D096E097F0980916B
:102680001E0290911F02092E000CAA0BBB0B84178F
:102690009507A607B70708F0C4C086E30E94A520E7
:1026A000BC01990F880B990B0E94952D20910E0269
:1026B00030910F0240911002509111020E944A2E57
:1026C00020910602309107024091080250910902C0
:1026D0000E94EB2C6093CC057093CD058093CE05C2
:1026E0009093CF0587E30E94A520BC01990F880B2A
:1026F000990B0E94952D2091120230911302409166
:102700001402509115020E944A2E20910A02309123
:102710000B0240910C0250910D020E94EB2C609331
:10272000C8057093C9058093CA059093CB0582EBC9
:102730009AE00E94CA1620E030E040E450E40E9493
:10274000792C6B017C016093D0057093D105809347
:10275000D2059093D30520E030E040EA51E40E9496
:10276000E62C87FF0EC020E030E040E850E4C701CF
:10277000B6010E94452E181624F481E080939D0A2C
:1027800002C010929D0AC090C805D090C905E09083
:10279000CA05F090CB0520E030E048E251E4C701E3
:1027A000B6010E94E62C87FF0EC020E030E040EA30
:1027B00050E4C701B6010E94452E181624F481E0AA
:1027C0008093900A02C01092900AC090CC05D090DD
:1027D000CD05E090CE05F090CF0520E030E040EB55
:1027E00050E4C701B6010E94E62C87FF0EC020E02E
:1027F00030E040E450E4C701B6010E94452E1816AF
:1028000024F481E080938F0A02C010928F0A0E9404
:10281000EC1F60939E0A70939F0A8093A00A909386
:10282000A10A0E94EC1FC090910AD090920AE090F9
:10283000930AF090940AAB01BC014C195D096E0932
:102840007F098091180290911902092E000CAA0BA1
:10285000BB0B84179507A607B70760F40E94F60A1A
:102860000E94EC1F6093910A7093920A8093930ADE
:102870009093940A0E94EC1FC090950AD090960AFB
:10288000E090970AF090980AAB01BC014C195D09E1
:102890006E097F0980911A0290911B02092E000C8B
:1028A000AA0BBB0B84179507A607B707C0F489E3EB
:1028B0000E94A520853F914024F081E08093C105CE
:1028C00002C01092C1050E94DB0A0E94EC1F6093B7
:1028D000950A7093960A8093970A9093980A80912C
:1028E0009D0A8823B9F10E94EC1F20911C023091AF
:1028F0001D02C090990AD0909A0AE0909B0AF0902D
:102900009C0ADC01CB018C199D09AE09BF09690144
:10291000032E000CEE08FF08C816D906EA06FB06CF
:10292000C8F437FF02C02F5F3F4F35952795032E20
:10293000000C440B550B60EA7FE085E30E944C23BA
:102940000E94EC1F6093990A70939A0A80939B0AE5
:1029500090939C0A8091900A8823B9F10E94EC1F01
:102960002091040230910502C0908B0AD0908C0A0D
:10297000E0908D0AF0908E0ADC01CB018C199D0944
:10298000AE09BF096901032E000CEE08FF08C81646
:10299000D906EA06FB06C8F437FF02C02F5F3F4F97
:1029A00035952795032E000C440B550B64E971E116
:1029B00085E30E944C230E94EC1F60938B0A709366
:1029C0008C0A80938D0A90938E0A80918F0A8823B7
:1029D000B9F10E94EC1F2091020230910302C090D5
:1029E000870AD090880AE090890AF0908A0ADC0170
:1029F000CB018C199D09AE09BF096901032E000C9A
:102A0000EE08FF08C816D906EA06FB06C8F437FF29
:102A100002C02F5F3F4F35952795032E000C440BC6
:102A2000550B68E873E185E30E944C230E94EC1F7C
:102A30006093870A7093880A8093890A90938A0A20
:102A400084ED95E00E944D0E61960FB6F894DEBFBE
:102A50000FBECDBFDF91CF91FF90EF90DF90CF9071
:102A6000089582EB9AE00E943B1681E08093C005B6
:102A7000A4CD1092C005A1CD41E050E061E274E028
:102A80008CE89CE00C94CA21CB010C9414311F9269
:102A90000F920FB60F9211240BB60F922F933F9304
:102AA0004F935F936F937F938F939F93AF93BF9356
:102AB000EF93FF93E091B70AF091B80A1995FF914F
:102AC000EF91BF91AF919F918F917F916F915F91A6
:102AD0004F913F912F910F900BBE0F900FBE0F9013
:102AE0001F901895DC01ED91FC910190F081E02D93
:102AF000199470E075956795FC01608381E59BE012
:102B00000C94981BCF92DF92EF92FF920F931F933A
:102B1000CF93DF931F92CDB7DEB7790181E59BE0BC
:102B200049830E94BB1B4981642F81E59BE00E9481
:102B30004F1B670110E0C6018E199F09801791078E
:102B400044F4F60161916F0181E59BE00E944F1B07
:102B5000F2CF81E59BE00F90DF91CF911F910F9114
:102B6000FF90EF90DF90CF900C94D81B0F93CF93F2
:102B7000DF9300D000D0CDB7DEB779836A835B8363
:102B80004C833D832E8306E09E012F5F3F4F44EF31
:102B9000FC0160810E94821526960FB6F894DEBF74
:102BA0000FBECDBFDF91CF910F9108950F93CF93BB
:102BB000DF9300D000D0CDB7DEB779836A835B8323
:102BC0004C833D832E8306E09E012F5F3F4F4CEEEA
:102BD000FC0160810E94821526960FB6F894DEBF34
:102BE0000FBECDBFDF91CF910F9108950F93CF937B
:102BF000DF9300D01F921F92CDB7DEB79E012F5FEB
:102C00003F4F75E0F90111927A95E9F77AEA7C83F2
:102C100075E57D8369835A834B8305E04FEEFC01A4
:102C200060810E9482150F900F900F900F900F906F
:102C3000DF91CF910F9108950F93CF93DF9300D041
:102C40001F921F92CDB7DEB769835A834B833C83B3
:102C50002D8305E09E012F5F3F4F4AEFFC0160810D
:102C60000E9482150F900F900F900F900F90DF91A0
:102C7000CF910F9108950F93CF93DF931F921F92DF
:102C8000CDB7DEB72AEA298325E52A8302E09E0133
:102C90002F5F3F4F4CEFFC0160810E9482150F9027
:102CA0000F90DF91CF910F9108951F93CF93DF93F2
:102CB0001F92CDB7DEB7162F81E59BE049830E94B6
:102CC000BB1B4981642F81E59BE00E944F1B81E57E
:102CD0009BE00E94D81B612F70E041E050E081E54D
:102CE0009BE00E94B81B81E59BE00E94C31A892BE0
:102CF00029F081E59BE00E94CB1A01C08FEF0F9075
:102D0000DF91CF911F91089543EDFC0160810C94F8
:102D100055160F931F93CF93DF9300D0CDB7DEB737
:102D2000162F19821A8281E59BE04B830E94BB1B00
:102D30004B81642F81E59BE00E944F1B81E59BE066
:102D40000E94D81B612F70E042E050E081E59BE0DB
:102D50000E94B81B8E010F5F1F4F81E59BE00E9410
:102D6000C31A892B41F081E59BE00E94CB1AF80140
:102D700081938F01F2CF898190E0982F88272A8153
:102D8000820F911D0F900F900F90DF91CF911F91A7
:102D90000F91089545EDFC0160810E948916BC01E8
:102DA000990F880B990B0E94952D20E030E040E2AE
:102DB00051E40E94EB2C089542EDFC0160810C94DB
:102DC000891641EDFC0160810C94891640EDFC01EF
:102DD00060810C9489168F929F92AF92BF92CF928E
:102DE000DF92EF92FF920F931F93CF93DF9300D068
:102DF00000D0CDB7DEB74C016B017A018901CE015D
:102E000001965C0186E0F50111928A95E9F7F401DB
:102E1000608181E59BE00E94BB1B68ED70E081E56D
:102E20009BE00E94721581E59BE00E94D81BF40193
:102E3000608170E046E050E081E59BE00E94B81BB5
:102E400081E59BE00E94C31A892B41F081E59BE05C
:102E50000E94CB1AF50181935F01F2CF898190E046
:102E6000982F88272A81820F911DF60191838083F4
:102E70008B8190E0982F88272C81820F911DF7017C
:102E8000918380838D8190E0982F88272E81820FF7
:102E9000911DF8019183808326960FB6F894DEBFCA
:102EA0000FBECDBFDF91CF911F910F91FF90EF909B
:102EB000DF90CF90BF90AF909F908F900895AF928A
:102EC000BF92CF92DF92EF92FF920F931F93CF9317
:102ED000DF9300D0CDB7DEB78C015B016A017901C9
:102EE00019821A821B82FC01608181E59BE00E94AD
:102EF000BB1B6EEF70E081E59BE00E94721581E5DF
:102F00009BE00E94D81BF8018081682F70E043E0AD
:102F100050E081E59BE00E94B81B8E010F5F1F4FC0
:102F200081E59BE00E94C31A892B41F081E59BE07B
:102F30000E94CB1AF80181938F01F2CF8981F501AC
:102F400080838A81F60180838B81F70180830F90D3
:102F50000F900F90DF91CF911F910F91FF90EF9005
:102F6000DF90CF90BF90AF900895CF92DF92EF9215
:102F7000FF920F931F93CF93DF936C018B017A0124
:102F8000EC01C354D54F888187FF04C0FB01118237
:102F9000108224C08CE08C9D90018D9D300D1124F9
:102FA0008881A901480F511D87FD5A958091BC0A5F
:102FB00090E04817590794F48881A901480F511DE2
:102FC00087FD5A95CA01FA01EE0FFF1F8E0F9F1F52
:102FD000FC01EF53F54F808186FD19C088818F5F1A
:102FE00088838CE08C9D90018D9D300D112488810B
:102FF000A901480F511D87FD5A958091BC0A90E0A8
:1030000048175907BCF488818C3044F113C088817B
:10301000280F311D87FD3A95F901EE0FFF1F2E0F86
:103020003F1FF901EF53F54F808160E08F730E94DD
:10303000721FD4CFF80180819181049680349C491D
:1030400018F480E49CE904C0F80180819181049621
:10305000F701918380838FEF888345C0F801408119
:1030600051818881B901680F711D87FD7A95CB0167
:10307000FB01EE0FFF1F8E0F9F1FFC01EF53F54F5B
:1030800081819281840F951FF701918380838881CC
:10309000A901480F511D87FD5A95CA01FA01EE0F8B
:1030A000FF1F8E0F9F1FFC01EF53F54F808186FF9E
:1030B0001AC08881280F311D87FD3A95F901EE0F5E
:1030C000FF1F2E0F3F1FF901EF53F54F808161E085
:1030D0008F73DF91CF911F910F91FF90EF90DF9051
:1030E000CF900C94721FDF91CF911F910F91FF90A1
:1030F000EF90DF90CF9008951F920F920FB60F922E
:1031000011240BB60F922F933F934F935F936F93BE
:103110007F938F939F93AF93BF93EF93FF9348E871
:1031200050E064E870E081E090E00E94B517FF9104
:10313000EF91BF91AF919F918F917F916F915F912F
:103140004F913F912F910F900BBE0F900FBE0F909C
:103150001F9018951F920F920FB60F9211240BB665
:103160000F922F933F934F935F936F937F938F9320
:103170009F93AF93BF93EF93FF9348E950E064E9C7
:1031800070E082E090E00E94B517FF91EF91BF914F
:10319000AF919F918F917F916F915F914F913F91EF
:1031A0002F910F900BBE0F900FBE0F901F90189590
:1031B0001F920F920FB60F9211240BB60F922F93FE
:1031C0003F934F935F936F937F938F939F93AF93AF
:1031D000BF93EF93FF9348EA50E064EA70E083E026
:1031E00090E00E94B517FF91EF91BF91AF919F9131
:1031F0008F917F916F915F914F913F912F910F90A0
:103200000BBE0F900FBE0F901F9018951F920F923C
:103210000FB60F9211240BB60F922F933F934F933B
:103220005F936F937F938F939F93AF93BF93EF932E
:10323000FF9348E251E064E271E080E090E00E9498
:10324000B517FF91EF91BF91AF919F918F917F91B2
:103250006F915F914F913F912F910F900BBE0F9007
:103260000FBE0F901F901895FC019091BC0A9033EF
:10327000A0F481E0890F8093BC0A9083892F90E0AD
:10328000FC01EE0FFF1F8E0F9F1FFC01EF53F54F48
:1032900088EB9BE09283818308958FEF808308956C
:1032A000DF92EF92FF920F931F93CF93DF93EC0186
:1032B000D62E7A0189018881803308F06AC061E0E6
:1032C0008D2D0E94361F8881E82FF0E09F01220F8C
:1032D000331FE20FF31FEF53F54F9D2D9F73208196
:1032E000207CD22ED92AD08260E272E0AB014E1946
:1032F0005F0957FF02C04D5F5F4F55954795559544
:103300004795498340E659E09A01201B310B37FF6E
:1033100002C02D5F3F4F35952795359527952A8318
:103320006CE00E94C72E9CE0899FB001112440E010
:1033300050E09A01260F371FF901EE0FFF1F2E0FE5
:103340003F1FF901EF53F54F908196FD16C04F5F77
:103350005F4F4C30510569F7813021F510928000A4
:1033600082E0809381001092850010928400B19ACF
:1033700080916F00826080936F00E881F0E0CF0160
:10338000880F991FE80FF91FEF53F54F8081806474
:1033900080838881DF91CF911F910F91FF90EF90F3
:1033A000DF900895823061F4109290008093910034
:1033B000109295001092940088BB80937100DDCF2D
:1033C000833069F41092A00082E08093A1001092F3
:1033D000A5001092A40089BB80937200CECF81110A
:1033E000CCCF1092200182E0809321011092250120
:1033F000109224018ABB80937300BFCF20E639E08E
:1034000040E252E00C945019FC019081903380F519
:10341000818128E830E0281B310987FD3395220F90
:10342000331F220F331F621773077CF0828128E558
:1034300032E0281B310987FD3395220F331F220FFD
:10344000331F621773070CF49B014FB7F894892F51
:1034500090E0FC01EE0FFF1F8E0F9F1FFC01EF534A
:10346000F54F22503109220F331F328321834FBF82
:103470000895AF92BF92CF92DF92EF92FF920F9397
:103480001F93CF93DF93EC01603282E078070CF05A
:103490003FC077FD06C0653B71052CF064EB70E022
:1034A00002C060E070E0898128E830E05901A81A84
:1034B000B10887FDB394AA0CBB1CAA0CBB1C0B2C37
:1034C000000CCC08DD08072E000C880B990B2A8114
:1034D00008E512E0021B110927FD1395000F111FCB
:1034E000000F111F012E000C220B330B3F932F9363
:1034F0001F930F9314EBE12EF12C00E010E020E07D
:1035000030E0A9010E9489210F900F900F900F9039
:10351000CE01DF91CF911F910F91FF90EF90DF903F
:10352000CF90BF90AF900C94041ACF92DF92EF929D
:10353000FF920F931F93CF93DF938C01EB01688170
:1035400079818A819B8120E03AEC4AE95BE30E9421
:10355000E72EF801C080D180E280F380C20ED31E36
:10356000E41EF51EC082D182E282F38268837983F1
:103570008A839B83DF91CF911F910F91FF90EF90F2
:10358000DF90CF9008958091850B90E02091860B7D
:10359000821B910908959091860B8091850B981755
:1035A00050F4E92FF0E0E957F44F208130E09F5FBD
:1035B0009093860B02C02FEF3FEFC9010895E09171
:1035C000860B8091850BE81730F4F0E0E957F44F53
:1035D000808190E008958FEF9FEF08950895AC01EA
:1035E000E0915D0BF0915E0B3097E1F09091860BCE
:1035F0008091850B9817B0F090E0292F30E02617C6
:10360000370754F4DA01A20FB31F8C91D901A957DF
:10361000B44F8C939F5FF1CF1092860B6093850B14
:10362000CB0119940895E0915F0BF091600B3097F6
:1036300029F01092630B1092620B19940895CF92A7
:10364000DF92EF92FF920F931F93CF93DF937C0152
:10365000262F972F8A018091610B882391F0C62F26
:10366000D72F6E01C40ED51ECC15DD0571F0699102
:10367000D701ED91FC910190F081E02DC7011995E2
:10368000F3CF642F822F0E94971CC801DF91CF9146
:103690001F910F91FF90EF90DF90CF900895CF93FF
:1036A000DF931F92CDB7DEB769832091610B222390
:1036B000D1F02091620B203240F021E030E0FC019B
:1036C0003383228380E090E015C08091630BE82F64
:1036D000F0E0EC59F44F998190838F5F8093630BF6
:1036E0008093620B05C061E0CE0101960E94971C99
:1036F00081E090E00F90DF91CF910895FC0113825B
:10370000128288EE93E0A0E0B0E084839583A683E4
:10371000B78384E495E09183808308951092860BAB
:103720001092850B1092630B1092620B0C94DF1BAE
:10373000CF93DF93EC01862F0E94FD1B83E19BE179
:103740000E94B51C8FEE9AE10E94B01CCE01DF9161
:10375000CF910C948E1B862F413208F040E267E82F
:103760007BE00E94011C1092860B8093850B0895CC
:1037700021E00C94AB1B81E08093610B6093840B80
:103780001092630B1092620B08950F93062F21E0A5
:103790004091620B64E67BE08091840B0E94451CA3
:1037A0001092630B1092620B1092610B0F910895AF
:1037B00061E00C94C51B81E59BE00C947E1B10928C
:1037C000140C81E08093120C1092110C61E084E1E2
:1037D0000E94721F61E085E10E94721FE9EBF0E038
:1037E00080818E7F808380818D7F808388E4809339
:1037F000B80085E48093BC000895880F8093BA00D8
:103800000895413208F03FC09091140C9111FCCF03
:1038100091E09093140C2093120C2FEF2093A70BA0
:103820001092EC0B240F2093EB0B9093130C9091C0
:10383000130C880F892B8093130C8091110C81300D
:1038400041F41092110C8091130C8093BB0085EC15
:1038500001C085EE8093BC008091140C8130E1F3AF
:103860008091EC0B841710F44091EC0B2DEE3BE0B3
:10387000FB01D9018A2F821B841718F48D91819343
:10388000F9CF842F089580E008950F93413208F016
:1038900046C09091140C9111FCCF32E03093140C7F
:1038A0000093120C3FEF3093A70B1092EC0B409358
:1038B000EB0BFB016DEE7BE0DB013A2F361B34177F
:1038C00018F431913D93F9CF1092130C3091130CF1
:1038D000880F832B8093130C8091110C813041F45D
:1038E0001092110C8091130C8093BB0085EC01C0E9
:1038F00085EE8093BC00222321F08091140C82304D
:10390000D1F38091A70B8F3F79F08091A70B803284
:1039100041F08091A70B803331F094E005C091E035
:1039200003C092E001C093E0892F0F9108956132A6
:1039300098F42091140C243089F46093C90BFC0195
:103940002BEC3BE0D9018A2F821B861718F481915A
:103950008D93F9CF80E0089581E0089582E0089585
:1039600090930E0C80930D0C08959093100C8093FF
:103970000F0C089585ED8093BC008091BC0084FD00
:10398000FCCF1092140C089585EC8093BC0010922B
:10399000140C08951F920F920FB60F9211240BB6BC
:1039A0000F922F933F934F935F936F937F938F93D8
:1039B0009F93AF93BF93EF93FF938091B900887F5C
:1039C000803609F49CC068F5883209F45BC090F435
:1039D000803109F454C038F4882309F4F5C08830E4
:1039E00009F44DC0F5C0883109F44CC0803209F4A7
:1039F0005DC0EEC0803409F468C048F4803309F437
:103A000055C0883309F0E4C08093A70BA8C0803567
:103A100009F44FC0883509F45DC0883409F0D8C076
:103A2000D5C0883909F4C6C0A8F4883709F467C03E
:103A300038F4883609F463C0803709F460C0C8C020
:103A4000883809F4B7C0803909F45FC0803809F0BC
:103A5000BFC05BC0803B09F485C038F4803A09F4EC
:103A600066C0883A09F47EC0B3C0803C09F4A6C0A1
:103A7000883C09F4A3C0883B09F489C0A9C080919F
:103A8000130C10C09091EC0B8091EB0B981770F514
:103A9000E091EC0B81E08E0F8093EC0BF0E0E351B2
:103AA000F44F80818093BB0085EC85C08093A70B89
:103AB0008DC0E091EC0B81E08E0F8093EC0B809138
:103AC000BB00F0E0E351F44F80839091EC0B8091C8
:103AD000EB0B6DC0E091EC0B81E08E0F8093EC0B53
:103AE0008091BB00F0E0E351F44F80838091120C91
:103AF00081116CC081E08093110C84EA60C083E086
:103B00008093140C1092A80BCFCF8091A80B803219
:103B100008F050C0E091A80B81E08E0F8093A80BB5
:103B20008091BB00F0E0E755F44F8083BDCF8091DA
:103B3000A80B803230F4E091A80BF0E0E755F44F89
:103B400010820E94BA1C6091A80B70E0E0910D0CED
:103B5000F0910E0C89EA9BE019951092A80B0E9437
:103B6000C41C36C084E08093140C1092CA0B1092CF
:103B7000C90BE0910F0CF091100C19958091C90BB5
:103B8000811105C081E08093C90B1092CB0BE091AD
:103B9000CA0B81E08E0F8093CA0BF0E0E553F44F1F
:103BA00080818093BB009091CA0B8091C90B9817BC
:103BB00008F47ACF85E88093BC000AC085EC809336
:103BC000BC001092140C04C01092A70B0E94BA1CE7
:103BD000FF91EF91BF91AF919F918F917F916F91E5
:103BE0005F914F913F912F910F900BBE0F900FBEA1
:103BF0000F901F9018956F927F928F929F92AF9225
:103C0000BF92CF92DF92EF92FF920F931F93CF93C9
:103C1000DF93EC01009789F4CB01DF91CF911F91E5
:103C20000F91FF90EF90DF90CF90BF90AF909F905B
:103C30008F907F906F900C944C2BFC01E60FF71F38
:103C40009C0122503109E217F30708F4ACC0D901F6
:103C50000D911C91119706171707B0F0053011054B
:103C600008F49FC0C80104978617970708F499C005
:103C700002501109061B170B019311936D937C934E
:103C8000CF010E94E12B8DC05B01A01AB10A4C014B
:103C9000800E911EA091F20EB091F30E40E050E024
:103CA000E12CF12C109709F44AC0A815B905D1F5FB
:103CB0006D907C901197630182E0C80ED11CCA14EC
:103CC000DB0480F1A3014A195B096A0182E0C80E96
:103CD000D11C1296BC9012971396AC91B5E0CB16FE
:103CE000D10440F0B282A38351834083D9016D9304
:103CF0007C930AC00E5F1F4FC301800F911FF90113
:103D000091838083EB2DFA2FE114F10431F0D70178
:103D10001396FC93EE93129744C0F093F30EE09346
:103D2000F20E3FC08D919C9111974817590708F4E6
:103D3000AC017D0112960D90BC91A02DB3CF809166
:103D4000F00E9091F10E88159905E1F4461757078A
:103D5000C8F480912E0290912F02009741F48DB704
:103D60009EB74091320250913302841B950BE817A5
:103D7000F907C8F4F093F10EE093F00EF9017183A6
:103D800060830FC0CB010E944C2B7C01009759F03F
:103D9000A801BE010E946B2FCE010E94E12BC7013A
:103DA00004C0CE0102C080E090E0DF91CF911F916E
:103DB0000F91FF90EF90DF90CF90BF90AF909F90CA
:103DC0008F907F906F90089590E0FC013197E131E2
:103DD000F10508F04AC08827EE58FF4F8F4F0C942A
:103DE000282F809180008F7703C0809180008F7D85
:103DF00080938000089584B58F7702C084B58F7D4D
:103E000084BD08958091B0008F7703C08091B00089
:103E10008F7D8093B0000895809190008F7707C0C8
:103E2000809190008F7D03C080919000877F809368
:103E3000900008958091A0008F7707C08091A00026
:103E40008F7D03C08091A000877F8093A00008959C
:103E5000809120018F7707C0809120018F7D03C062
:103E600080912001877F809320010895CF93DF9375
:103E700090E0FC01EA5BFC4F2491FC01E457FC4F0D
:103E80008491882361F190E0880F991FFC01E4512F
:103E9000FC4FC591D491FC01EE52FC4FA591B49119
:103EA000611109C09FB7F894888120958223888387
:103EB000EC912E230BC0623061F49FB7F8943881E7
:103EC000822F809583238883EC912E2B2C939FBF88
:103ED00006C08FB7F894E8812E2B28838FBFDF911F
:103EE000CF9108951F93CF93DF93282F30E0F901EE
:103EF000E050FD4F8491F901EA5BFC4FD491F90148
:103F0000E457FC4FC491CC23C9F0162F81110E94B5
:103F1000E41EEC2FF0E0EE0FFF1FEE52FC4FA591D8
:103F2000B4918FB7F894111105C09C91ED2FE095D5
:103F3000E92302C0EC91ED2BEC938FBFDF91CF9181
:103F40001F9108951F920F920FB60F9211242F9375
:103F50003F938F939F93AF93BF938091160C909153
:103F6000170CA091180CB091190C3091150C23E08E
:103F7000230F2D3720F40196A11DB11D05C026E8A1
:103F8000230F0296A11DB11D2093150C8093160CD2
:103F90009093170CA093180CB093190C80911A0CE5
:103FA00090911B0CA0911C0CB0911D0C0196A11DB1
:103FB000B11D80931A0C90931B0CA0931C0CB09312
:103FC0001D0CBF91AF919F918F913F912F910F90B9
:103FD0000FBE0F901F9018952FB7F8946091160C94
:103FE0007091170C8091180C9091190C2FBF0895A7
:103FF0003FB7F89480911A0C90911B0CA0911C0C67
:10400000B0911D0C26B5A89B05C02F3F19F0019655
:10401000A11DB11D3FBFBA2FA92F982F8827820F4E
:10402000911DA11DB11DBC01CD0142E0660F771F9E
:10403000881F991F4A95D1F70895CF92DF92EF928A
:10404000FF92CF93DF936B017C010E94F81FEB017D
:10405000C114D104E104F10479F00E94F81F6C1B33
:104060007D0B683E7340A0F381E0C81AD108E108D7
:10407000F108C851DC4FECCFDF91CF91FF90EF906A
:10408000DF90CF900895789484B5826084BD84B524
:10409000816084BD85B5826085BD85B5816085BD43
:1040A000EEE6F0E0808181608083E1E8F0E010825C
:1040B000808182608083808181608083E0E8F0E09D
:1040C000808181608083E1EBF0E080818460808387
:1040D000E0EBF0E0808181608083E1E9F0E08081C5
:1040E00082608083808181608083E0E9F0E080816C
:1040F00081608083E1EAF0E080818260808380815A
:1041000081608083E0EAF0E0808181608083E1E289
:10411000F1E0808182608083808181608083E0E241
:10412000F1E0808181608083EAE7F0E08081846053
:1041300080838081826080838081816080838081B0
:10414000806880831092C1000895863308F08653FA
:1041500090917B00282F2870977F922B90937B0063
:10416000877020912C0290E4299F90011124822BCA
:1041700080937C0080917A00806480937A008091A3
:104180007A0086FDFCCF809178002091790090E044
:10419000922B08951F93CF93DF93182FEB0161E0CB
:1041A0000E94361F209711F460E004C0CF3FD10574
:1041B00039F461E0812FDF91CF911F910C94721F30
:1041C000E12FF0E0E050FD4FE4914E2F50E0FA0176
:1041D0003197E131F10508F093C08827ED57FF4F83
:1041E0008F4F0C94282F84B5806884BDC7BD8DC0C7
:1041F00084B5806284BDC8BD88C08091800080681D
:1042000080938000D0938900C09388007EC0809105
:104210008000806280938000D0938B00C0938A00DE
:1042200074C08091B00080688093B000C093B300E8
:104230006CC08091B00080628093B000C093B400E5
:1042400064C080919000806880939000D093990022
:10425000C09398005AC08091900080628093900033
:10426000D0939B00C0939A0050C0809190008860CA
:1042700080939000D0939D00C0939C0046C0809195
:10428000A00080688093A0008091A0008F7B809325
:10429000A000D093A900C093A80037C08091A000CF
:1042A00080628093A000D093AB00C093AA002DC081
:1042B0008091A00088608093A000D093AD00C0934F
:1042C000AC0023C080912001806880932001D093AE
:1042D0002901C093280119C0809120018062809338
:1042E0002001D0932B01C0932A010FC0809120019F
:1042F000886080932001D0932D01C0932C0105C0CC
:10430000C038D1050CF055CF4FCFDF91CF911F9121
:1043100008954F925F926F927F92AF92BF92CF9229
:10432000DF92EF92FF920F931F93CF93DF93CDB75E
:10433000DEB729013A019B01AC0124193509460970
:1043400057098A899B89AC89BD89BC01CD016A194D
:104350007B098C099D090E94B72EA8019701241999
:104360003509460957090E94092FCA01B9016A0D8A
:104370007B1D8C1D9D1DDF91CF911F910F91FF9093
:10438000EF90DF90CF90BF90AF907F906F905F9055
:104390004F900895CF92DF92EF92FF920F931F9369
:1043A000CF93DF936C01EB017B01E40EF51E00E07F
:1043B00010E0CE15DF0561F06991D601ED91FC9119
:1043C0000190F081E02DC6011995080F191FF1CF5A
:1043D000C801DF91CF911F910F91FF90EF90DF9077
:1043E000CF9008950E9443200E94AC11C5EDD8E201
:1043F0000E94BA122097E1F30E94D528F9CF0F93BB
:104400001F93CF93DF93EC010E94EC1F688779879D
:104410008A879B87E881F9810680F781E02DCE01AC
:10442000199597FF17C00E94EC1F088519852A85EA
:104430003B85DC01CB01801B910BA20BB30B0C81E4
:104440001D812E813F8180179107A207B30710F3CA
:104450008FEF9FEFDF91CF911F910F910895EF9212
:10446000FF920F931F93CF93DF93EC017B01042FF7
:104470006BEF73E00E94C522C7010E94FF21002E4E
:10448000000C110B97FD0BC08017910741F0682FAE
:10449000CE010E940923C7010E94FF21F3CFCE0164
:1044A000DF91CF911F910F91FF90EF900895FC0144
:1044B000808191810C94E12BCF93DF93EC01888173
:1044C0009981009711F00E94E12B198218821D82B8
:1044D0001C821B821A82DF91CF9108950F931F9344
:1044E000CF93DF93EC018B016F5F7F4F88819981C0
:1044F0000E94FB1D009731F0998388831B830A83F8
:1045000081E001C080E0DF91CF911F910F9108956C
:10451000CF93DF93EC0188819981892B29F08A81DF
:104520009B818617970760F4CE010E946E22882334
:1045300041F08C819D81892B19F4E881F9811082E9
:1045400081E0DF91CF910895EF92FF920F931F9337
:10455000CF93DF93EC017B018A01BA010E9488228C
:10456000811104C0CE010E945C2207C01D830C8310
:10457000B701888199810E94742FCE01DF91CF917C
:104580001F910F91FF90EF900895FC01118210820E
:10459000138212821582148216826115710551F000
:1045A000FB0101900020E9F73197AF01461B570B43
:1045B0000C94A4220895EF92FF920F931F93CF9330
:1045C000DF93FC01248135816115710511F480E0D0
:1045D00019C041155105A9F07B01EC018A01020FB8
:1045E000131FB8010E948822882389F3288139810A
:1045F0008C819D81B701820F931F0E94742F1D83B0
:104600000C8381E0DF91CF911F910F91FF90EF908C
:104610000895CF93DF931F921F92CDB7DEB76983C2
:104620001A8241E050E0BE016F5F7F4F0E94DB22A3
:104630000F900F90DF91CF9108950F931F93CF9319
:10464000DF934115510519F16115710501F1DC0187
:104650001496ED91FC9115972E173F0718F0FB016A
:10466000108215C0E21BF30BEA012197EC17FD073E
:1046700008F4EF018B01FC0160817181620F731FEF
:10468000AE01C8010E947B2FC00FD11F1882DF919D
:10469000CF911F910F9108953F924F925F926F9229
:1046A0007F928F929F92AF92BF92CF92DF92EF92C2
:1046B000FF920F931F93CF93DF9300D01F92CDB73C
:1046C000DEB729013A0190912D02981721F09F3F02
:1046D00009F02BC304C0E6E0F4E0349004C18093F9
:1046E0002D02E6E0F4E0E491EF3F09F41EC3E2306E
:1046F00009F480C074F5EE2309F45BC0E13009F0E1
:10470000F1C0109280001092810090918100986019
:104710009093810090918100916090938100282F67
:1047200030E0F901E457FC4FE491F0E0EE0FFF1F99
:10473000EE52FC4F4591549150933C0C40933B0CEE
:10474000F901EA5BFC4FE491E0933A0C3324339493
:10475000CCC0E43009F49EC00CF474C0E53009F01C
:10476000C1C0109220011092210190912101986006
:104770009093210190912101916090932101482F04
:1047800050E0FA01E457FC4FE491F0E0EE0FFF1F18
:10479000EE52FC4F259134913093200C20931F0C46
:1047A000FA01EA5BFC4FE491E0931E0CB5E03B2E6E
:1047B0009CC014BC15BC94B5926094BD95B5916035
:1047C00095BD282F30E0F901E457FC4FE491F0E06B
:1047D000EE0FFF1FEE52FC4F459154915093430C46
:1047E0004093420CF901EA5BFC4FE491E093410CE9
:1047F000312C7BC01092B0001092B1009091B000AB
:1048000092609093B0009091B10091609093B1004C
:10481000282F30E0F901E457FC4FE491F0E0EE0F6F
:10482000FF1FEE52FC4F459154915093350C40932D
:10483000340CF901EA5BFC4FE491E093330C52E055
:10484000352E53C0109290001092910090919100DB
:104850009860909391009091910091609093910055
:10486000282F30E0F901E457FC4FE491F0E0EE0F1F
:10487000FF1FEE52FC4F4591549150932E0C4093E4
:104880002D0CF901EA5BFC4FE491E0932C0C23E042
:10489000322E2BC01092A0001092A1009091A10086
:1048A00098609093A1009091A10091609093A100D5
:1048B000282F30E0F901E457FC4FE491F0E0EE0FCF
:1048C000FF1FEE52FC4F459154915093270C40939B
:1048D000260CF901EA5BFC4FE491E093250C04E01F
:1048E000302E03C03E2E37FC20C28B0161E00E94B7
:1048F000361F4801A12CB12C832D8D7F09F0B4C047
:1049000060E072E18AE790E0A50194010E94092F1E
:1049100029833A834B835C8369017A0121E0C21ABF
:10492000D108E108F1088FEFC816D104E104F104C1
:1049300009F008F44CC060E472E48FE090E0A50157
:1049400094010E94092F69017A0191E0C91AD108E6
:10495000E108F108E2E03E1220C0FFEFCF16D104DB
:10496000E104F10409F008F4DEC160E970ED83E0D0
:1049700090E0A50194010E94092F69017A0181E06C
:10498000C81AD108E108F1089FEFC916D104E10463
:10499000F10409F0B8F583E064C0EFEFCE16D1045E
:1049A000E104F104B1F0A8F068E478EE81E090E071
:1049B000A50194010E94092F69017A01F1E0CF1A43
:1049C000D108E108F108332009F453C1A3C181E003
:1049D00001C082E03320A1F044C089819A81AB817B
:1049E000BC812AE0B595A795979587952A95D1F72B
:1049F0006C017D01F1E0CF1AD108E108F10885E0F2
:104A000085BDA2C068E478EE81E090E0A501940144
:104A10000E94092F69017A0181E0C81AD108E108D2
:104A2000F1089FEFC916D104E104F10409F008F47C
:104A30001EC164E274EF80E090E0A50194010E9441
:104A4000092F69017A0181E0C81AD108E108F1084B
:104A50009FEFC916D104E104F10411F008F02BC155
:104A600085E08093B10070C060E072E18AE790E079
:104A7000A50194010E94092F69017A01F1E0CF1A82
:104A8000D108E108F108C114D10421E0E206F104E3
:104A900088F068E478EE81E090E0A50194010E943E
:104AA000092F69017A0181E0C81AD108E108F108EB
:104AB00083E001C081E091E0391210C09091810043
:104AC000987F892B80938100411451046104710403
:104AD00009F03FC02FEF3FEFA90171C0E3E03E12A4
:104AE0000FC090919100987F892B80939100411481
:104AF00051046104710469F52FEF3FEFA90181C0F2
:104B0000F4E03F120FC09091A100987F892B809311
:104B1000A1004114510461047104D9F42FEF3FEF57
:104B2000A90181C025E032120FC090912101987F28
:104B3000892B80932101411451046104710449F4CB
:104B40002FEF3FEFA90181C04114510461047104AA
:104B500071F0D801AA0FBB1FA30192010E94302F50
:104B600028EE33E040E050E00E94E72E03C02FEF34
:104B70003FEFA90182E03816A1F1831534F033200C
:104B800079F091E03916D9F0D0C0E4E03E1609F48E
:104B90004AC03E16B4F1F5E03F1609F456C0C5C050
:104BA000C7BC2093440C3093450C4093460C509363
:104BB000470C80916E00826080936E00B6C0D092E8
:104BC0008900C092880020933D0C30933E0C4093A6
:104BD0003F0C5093400C80916F00826080936F0077
:104BE000A4C0C092B3002093360C3093370C40938E
:104BF000380C5093390C8091700082608093700063
:104C000094C0D0929900C092980020932F0C3093BA
:104C1000300C4093310C5093320C809171008260C3
:104C20008093710082C0D092A900C092A800209306
:104C3000280C3093290C40932A0C50932B0C809114
:104C4000720082608093720070C0D0922901C0927D
:104C500028012093210C3093220C4093230C509375
:104C6000240C809173008260809373005EC084E0A6
:104C7000F8CE2FEFC216D104E104F104D1F0C8F050
:104C800062E17AE780E090E0A50194010E94092F9B
:104C900069017A01E1E0CE1AD108E108F108FFEFDD
:104CA000CF16D104E104F10411F008F096CE84E0AF
:104CB000A7CE83E0A5CE62E17AE780E090E0A5018F
:104CC00094010E94092F69017A0181E0C81AD10874
:104CD000E108F1089FEFC916D104E104F104C1F025
:104CE000B8F089819A81AB81BC814AE0B595A795DE
:104CF000979587954A95D1F76C017D01E1E0CE1A31
:104D0000D108E108F108332009F479CE87E0A9CE73
:104D100086E060CEEFEFCE16D104E104F10409F095
:104D200050F684E057CE82E09CCE0F900F900F900B
:104D30000F90DF91CF911F910F91FF90EF90DF9037
:104D4000CF90BF90AF909F908F907F906F905F902B
:104D50004F903F9008958230A9F028F4882349F0BD
:104D6000813051F00895843009F1E8F0853009F17F
:104D7000089510926E00089580916F008D7F80934A
:104D80006F000895809170008D7F8093700081E0A6
:104D90008093B0008091B100887F84608093B100DF
:104DA0001092B3000895109271000895109272004D
:104DB0000895109273000895CF93C82F80912D020B
:104DC0008C1307C0E6E0F4E0E4918FEF80932D02AE
:104DD00001C0EFEF8E2F0E94AB2660E08C2FCF91A9
:104DE0000C94721F1F920F920FB60F9211240BB6E4
:104DF0000F922F933F934F935F936F937F938F9374
:104E00009F93AF93BF93EF93FF938091360C909154
:104E1000370CA091380CB091390C892B8A2B8B2B35
:104E200051F18091330CE091340CF091350C90816C
:104E3000892780838091360C9091370CA091380C93
:104E4000B091390C181619061A061B06C4F4809185
:104E5000360C9091370CA091380CB091390C019719
:104E6000A109B1098093360C9093370CA093380CAC
:104E7000B093390C04C080912D020E94DC26FF9172
:104E8000EF91BF91AF919F918F917F916F915F91C2
:104E90004F913F912F910F900BBE0F900FBE0F902F
:104EA0001F901895FC0124853585F901E05CFF4FC2
:104EB00080819181329620813181821B930B8F7387
:104EC00099270895DC011C96ED91FC911D97DF0157
:104ED000A05CBF4F2D913C91119712968D919C91A2
:104EE00011972817390739F08D919C91E80FF91F18
:104EF000808190E008958FEF9FEF0895FC01A485D5
:104F0000B585FD01E05CFF4F2081318132968081C3
:104F100091812817390779F080819181A80FB91FF5
:104F20008C91208131812F5F3F4F2F733327318345
:104F3000208390E008958FEF9FEF0895FC0181A1F9
:104F4000882329F0A489B5898C9186FFFBCF11A213
:104F500008950F931F93CF93DF93FC01A685B78528
:104F60008D01005C1F4FE8018881998101968F7344
:104F70009927AD014E5B5F4FEA0128813981821785
:104F80009307D1F3E80128813981A20FB31F6C93F5
:104F9000A685B785A05CBF4F11969C938E93A6897A
:104FA000B7892C9181E090E0078C02C0880F991F8F
:104FB0000A94E2F7822B8C9381E081A30488F5891F
:104FC000E02D80818064808381E090E0DF91CF914B
:104FD0001F910F910895FB01E05CFF4F208131810B
:104FE0002F5F3F4F2F733327DB01AE5BBF4F4D91D8
:104FF0005C912417350741F040815181DB01A40FFA
:10500000B51F8C9331832083089508951F920F92CA
:105010000FB60F9211240BB60F922F933F934F931D
:105020005F936F937F938F939F93AF93BF93EF9310
:10503000FF938091C00082FD07C08091C6006CEA9A
:105040007EE00E94EB2702C08091C600FF91EF91A5
:10505000BF91AF919F918F917F916F915F914F9190
:105060003F912F910F900BBE0F900FBE0F901F908E
:10507000189508951F920F920FB60F9211240BB638
:105080000F922F933F934F935F936F937F938F93E1
:105090009F93AF93BF93EF93FF938091C80082FDDE
:1050A00007C08091CE0064E27EE00E94EB2702C040
:1050B0008091CE00FF91EF91BF91AF919F918F9121
:1050C0007F916F915F914F913F912F910F900BBE08
:1050D0000F900FBE0F901F90189508951F920F927A
:1050E0000FB60F9211240BB60F922F933F934F934D
:1050F0005F936F937F938F939F93AF93BF93EF9340
:10510000FF938091D00082FD07C08091D6006CE9AA
:105110007DE00E94EB2702C08091D600FF91EF91C5
:10512000BF91AF919F918F917F916F915F914F91BF
:105130003F912F910F900BBE0F900FBE0F901F90BD
:10514000189508951F920F920FB60F9211240BB667
:105150000F922F933F934F935F936F937F938F9310
:105160009F93AF93BF93EF93FF938091300182FDA4
:1051700007C08091360164E17DE00E94EB2702C008
:1051800080913601FF91EF91BF91AF919F918F91E7
:105190007F916F915F914F913F912F910F900BBE37
:1051A0000F900FBE0F901F9018958EEA9CE00E9402
:1051B0005227892B11F00E9405288CE89CE00E9460
:1051C0005227892B11F00E9439288AE69CE00E9420
:1051D0005227892B11F00E946D2888E49CE00E94E0
:1051E0005227892B11F00C94A12808951F920F9239
:1051F0000FB60F9211240BB60F922F933F938F93FC
:105200009F93EF93FF932091A80E3091A90E809168
:10521000AA0E9091AB0E2817390731F48091C10086
:105220008F7D8093C10014C0E091AA0EF091AB0E67
:10523000E859F14F20818091AA0E9091AB0E019612
:105240008F7399279093AB0E8093AA0E2093C6007C
:10525000FF91EF919F918F913F912F910F900BBEF6
:105260000F900FBE0F901F9018951F920F920FB6C0
:105270000F9211240BB60F922F933F938F939F930E
:10528000EF93FF932091200E3091210E8091220EFA
:105290009091230E2817390731F48091C9008F7D32
:1052A0008093C90014C0E091220EF091230EE052C9
:1052B000F24F20818091220E9091230E01968F73E0
:1052C00099279093230E8093220E2093CE00FF9176
:1052D000EF919F918F913F912F910F900BBE0F9067
:1052E0000FBE0F901F9018951F920F920FB60F923E
:1052F00011240BB60F922F933F938F939F93EF93AD
:10530000FF932091980D3091990D80919A0D909175
:105310009B0D2817390731F48091D1008F7D809340
:10532000D10014C0E0919A0DF0919B0DE85AF24F14
:10533000208180919A0D90919B0D01968F739927F2
:1053400090939B0D80939A0D2093D600FF91EF913F
:105350009F918F913F912F910F900BBE0F900FBE99
:105360000F901F9018951F920F920FB60F92112455
:105370000BB60F922F933F938F939F93EF93FF93CF
:105380002091100D3091110D8091120D9091130DFF
:105390002817390731F4809131018F7D80933101D5
:1053A00014C0E091120DF091130DE053F34F2081E2
:1053B0008091120D9091130D01968F739927909300
:1053C000130D8093120D20933601FF91EF919F9161
:1053D0008F913F912F910F900BBE0F900FBE0F90AA
:1053E0001F901895CF92DF92EF92FF920F931F9329
:1053F000CF93DF93EC016A017B014115514E6105AA
:10540000710509F1EC89FD8981E090E008A002C0F6
:10541000880F991F0A94E2F7808360E079E08DE3BA
:1054200090E0A70196010E94E72E89019A010150A0
:105430001109210931093695279517950795980186
:1054400001151041A8F0EC89FD89108260E874E82C
:105450008EE190E0A70196010E94E72EDA01C901D2
:105460000197A109B109B695A795979587959C01D4
:10547000E889F9893083EA89FB89208319A2EE89BA
:10548000FF89408181E090E09C010C8C02C0220FDA
:10549000331F0A94E2F7242B2083EE89FF89408191
:1054A0009C010D8C02C0220F331F0A94E2F7242BBB
:1054B0002083EE89FF8940819C010E8C02C0220F5F
:1054C000331F0A94E2F7242B2083EE89FF89208181
:1054D0000F8C02C0880F991F0A94E2F780958223EF
:1054E0008083DF91CF911F910F91FF90EF90DF901C
:1054F000CF900895CF92DF92EF92FF92EEEAFCE018
:105500001382128288EEC82E83E0D82EE12CF12C73
:10551000C482D582E682F78264E575E07183608398
:105520008CEA9EE09587848788E69EE09787868749
:1055300085EC90E0918B808B84EC90E0938B828B58
:1055400080EC90E0958B848B81EC90E0978B868B40
:1055500082EC90E0918F808F86EC90E0938F828F29
:1055600044E0448F33E0358F27E0268F95E0978F16
:1055700081E080A3ECE8FCE013821282C482D58231
:10558000E682F78271836083A4E2BEE0B587A487D8
:10559000A0EEBDE0B787A687ADECB0E0B18BA08BE5
:1055A000ACECB0E0B38BA28BA8ECB0E0B58BA48BD5
:1055B000A9ECB0E0B78BA68BAAECB0E0B18FA08FBE
:1055C000AEECB0E0B38FA28F448F358F268F978FCC
:1055D00080A3EAE6FCE013821282C482D582E682CE
:1055E000F78271836083ACE9BDE0B587A487A8E545
:1055F000BDE0B787A687A5EDB0E0B18BA08BA4ED89
:10560000B0E0B38BA28BA0EDB0E0B58BA48BA1ED85
:10561000B0E0B78BA68BA2EDB0E0B18FA08FA6ED66
:10562000B0E0B38FA28F448F358F268F978F80A3E2
:10563000E8E4FCE013821282C482D582E682F7821B
:105640007183608364E17DE07587648760ED7CE051
:105650007787668765E371E0718B608B64E371E047
:10566000738B628B60E371E0758B648B61E371E037
:10567000778B668B62E371E0718F608F66E371E018
:10568000738F628F448F358F268F978F80A3FF9003
:10569000EF90DF90CF900895CF93DF938230910504
:1056A00010F482E090E0E091F20EF091F30E20E031
:1056B00030E0C0E0D0E0309711F1408151814817CF
:1056C0005907C0F04817590761F4828193812097E8
:1056D00019F09B838A832BC09093F30E8093F20E74
:1056E00026C02115310519F04217530718F49A0105
:1056F000BE01DF01EF010280F381E02DDCCF211537
:10570000310509F1281B390B2430310590F412962C
:105710008D919C9113976115710521F0FB01938385
:10572000828304C09093F30E8093F20EFD013296B3
:1057300044C0FD01E20FF31F819391932250310980
:105740002D933C933AC02091F00E3091F10E232B13
:1057500041F420913002309131023093F10E2093C8
:10576000F00E20912E0230912F022115310541F4C7
:105770002DB73EB74091320250913302241B350BB6
:10578000E091F00EF091F10EE217F307A0F42E1B5A
:105790003F0B2817390778F0AC014E5F5F4F241795
:1057A000350748F04E0F5F1F5093F10E4093F00EF7
:1057B0008193919302C0E0E0F0E0CF01DF91CF91BF
:1057C00008950F931F93CF93DF93009709F48CC034
:1057D000FC013297138212820091F20E1091F30EA7
:1057E0000115110581F420813181820F931F2091D1
:1057F000F00E3091F10E2817390779F5F093F10E7C
:10580000E093F00E71C0D80140E050E0AE17BF0742
:1058100050F412962D913C911397AD01211531054D
:1058200009F1D901F3CF9D01DA013383228360812D
:105830007181860F971F8217930769F4EC01288105
:105840003981260F371F2E5F3F4F318320838A8196
:105850009B8193838283452B29F4F093F30EE0938D
:10586000F20E42C01396FC93EE931297ED0149910C
:1058700059919E01240F351FE217F30771F48081BF
:105880009181840F951F029611969C938E9382812D
:10589000938113969C938E931297E0E0F0E0D801E9
:1058A00012968D919C911397009719F0F8018C0135
:1058B000F6CF8D919C9198012E5F3F4F820F931FE1
:1058C0002091F00E3091F10E2817390769F43097C6
:1058D00029F41092F30E1092F20E02C0138212827B
:1058E0001093F10E0093F00EDF91CF911F910F9165
:1058F00008955058BB27AA270E94912C0C940B2E78
:105900000E94FD2D38F00E94042E20F039F49F3FB4
:1059100019F426F40C94FA2D0EF4E095E7FB0C94A0
:10592000F42DE92F0E941C2E58F3BA176207730753
:105930008407950720F079F4A6F50C943E2E0EF41A
:10594000E0950B2EBA2FA02D0B01B90190010C018F
:10595000CA01A0011124FF27591B99F0593F50F4A7
:10596000503E68F11A16F040A22F232F342F4427FF
:10597000585FF3CF469537952795A795F0405395F7
:10598000C9F77EF41F16BA0B620B730B840BBAF0C7
:105990009150A1F0FF0FBB1F661F771F881FC2F732
:1059A0000EC0BA0F621F731F841F48F48795779546
:1059B0006795B795F7959E3F08F0B0CF9395880F00
:1059C00008F09927EE0F9795879508950E94D02D9E
:1059D00008F481E008950E94FF2C0C940B2E0E9485
:1059E000042E58F00E94FD2D40F029F45F3F29F06D
:1059F0000C94F42D51110C943F2E0C94FA2D0E940E
:105A00001C2E68F39923B1F3552391F3951B550B85
:105A1000BB27AA2762177307840738F09F5F5F4F81
:105A2000220F331F441FAA1FA9F335D00E2E3AF0C0
:105A3000E0E832D091505040E695001CCAF72BD0D8
:105A4000FE2F29D0660F771F881FBB1F2617370729
:105A50004807AB07B0E809F0BB0B802DBF01FF275B
:105A600093585F4F3AF09E3F510578F00C94F42D17
:105A70000C943F2E5F3FE4F3983ED4F386957795E0
:105A80006795B795F7959F5FC9F7880F911D969514
:105A9000879597F90895E1E0660F771F881FBB1F70
:105AA000621773078407BA0720F0621B730B840B1D
:105AB000BA0BEE1F88F7E09508950E94642D689454
:105AC000B1110C943F2E08950E94242E88F09F5708
:105AD00098F0B92F9927B751B0F0E1F0660F771F12
